:100000000C94E40A0C940C0B0C940C0B0C940C0B3D
:100010000C940C0B0C940C0B0C940C0B0C940C0B04
:100020000C940C0B0C940C0B0C940C0B0C9466267F
:100030000C940C0B0C940C0B0C940C0B0C940C0BE4
:100040000C94DD260C940C0B0C940C0B0C940C0BE8
:100050000C940C0B0C940C0B0C940C0B0C940C0BC4
:100060000C940C0B0C940C0BEE0EF40EFA0E000F0D
:10007000060F0C0F120F180F1E0F7F0F240F2A0FE1
:10008000300F360F3C0F420F480F4E0F540F5A0FD0
:10009000600F660F6C0F720F780F080471FAAFFFD4
:1000A000080D1C3E3E0E1C0E7E1E0E0E0A0A1E0879
:1000B0000A1C1C1C083C1C0C1C163208127CFEFE80
:1000C000B6FEFEAB577F3FFFFF7F3F3F3377771092
:1000D0002C000000000000000000000000000000F4
:1000E000000C88114815400D880000000000000039
:1000F0000000000000000000000000000000000000
:1001000000000000000000000000000000000000EF
:1001100000000000000000000000000000000000DF
:1001200000000000000000FFFF20134800001248FC
:100130000000125000000A5000000A7800001E491A
:10014000FC3F92490420927104208E5104208A5170
:1001500004208A7904209E4BFE20924A022292714A
:10016000FC228E5000208A5000208A7800209E4871
:10017000002092FFFFFFFF20137200004E51FFFF8F
:100180008A5000000A7BFFDFDE4A0050524A0450CA
:10019000527208504E5210504A5204504A7A085037
:1001A0005E4A1050524A0058527200504E53FFD0CF
:1001B0004A5000104A7800105E4800105248001063
:1001C00052FFFFFFFF18154000024FE7F2482412CC
:1001D0004824124824124824124824124FE7F240BF
:1001E000000240000240000240000243F802444482
:1001F000024442024FFF825000425606C2F9097F74
:1002000019F9C006060020134006AA82400EBFC29C
:10021000401AA042403ADF82406AA00240EB40020E
:1002200041AA9FC243AD104246AA11424EB41242A7
:100230005AA814425AD011424AA012424B401442CA
:100240004A8010424D001FC24A00000254000002C2
:10025000FFFFFFFF18155FFFFA50180A4FE7F24043
:1002600000024FE7F248241248241248241248247E
:10027000125FFFFA50180A4FE7F2400002400C02EA
:10028000400702401F0243FE0243FF82F93B5F0327
:10029000FA4000C18020133800001C7C00003E445E
:1002A000000022440000223800001C10000008104A
:1002B000000008107F000810808008110740081116
:1002C00008C00811FFC0081200200812D5A0083A83
:1002D000EBA01C3A00201C39FFC01C3980C01CFF59
:1002E000FFFFFF0801FF201300841080010220405F
:1002F0000102204001394E40014551400145514025
:10030000028360A0028360A00201C0200201C0201D
:10031000020080200203E02000041000000410000E
:100320003FFFFFFC200000041C0000380800001004
:10033000FFFFFFFF101303C0042004100808080883
:1003400008041004100410081008101008100410FD
:1003500003E00140014001400140FFFF3013040869
:1003600084A1210004090890FF8007FA10884080CA
:10037000040C2084208004184082108003F08081C7
:100380000F80002100808480004301E0C28000854E
:10039000C213A1000108FFFF108002103C0C0840AE
:1003A000042004080420084004080210108007F804
:1003B00001087FC0040803FE4040040802024040D8
:1003C00003F00202404000000202FFFFFFFFFFFFB8
:1003D00010130071018F07411AC27564AAB87FF02B
:1003E00008407FFC8002BFFAA00AA00AA00AA00A67
:1003F000BFFA80028002FFFF101378003FC06AB886
:1004000055576AB83FC0784008407FFC8002BFFA69
:10041000A00AA00AA00AA00ABFFA80028002FFFF79
:1004200010131FF02AA840047FFC3FF87FFC400413
:100430003FF80820FFFE8002BFFAA00AA00AA00A27
:10044000BFFA80028002FFFF38130A8E001E8A2343
:10045000FC09070079041FE80A8BE3F28A7F080C85
:1004600051FFF453FC180820BE082FCA280C514530
:10047000143F49480A8A28A3F8888809041047C904
:1004800049483E8A28BFAA2A28415145FC1C1C180D
:100490005D2083FFFFFFF855515F9C1C1C18558A97
:1004A0007E2A2A2A285507F949494948558F8888BC
:1004B0008888885D7F494949494841FA2A2A2A2A79
:1004C0002841CC1C1C1C1C18FFFFFFFFFFFFFF284E
:1004D000131554002AA83FFDC03FFC7FFC01BFFE5E
:1004E000FFFC243FFFFFFC7E3FFF4004FF20024350
:1004F0009DFFA03A64440030024AA47E27E24924CA
:100500008108124EE500800A4925668C0A49246656
:100510000C8A492CFF3C62492500AC524FE566AF7E
:10052000CA700500A00A401FFFFFFEFFFFFFFFFF8C
:10053000181300FF001F00F8204E042EAAE42AEC36
:10054000842CAA8428006420FF043F00FC30000CA7
:1005500030000C78001EFC003F4800124800124892
:100560000012480012480012FFFFFF1813D555551E
:10057000AAAAABD55555AAAAABD55555AAAAABD5AB
:100580005555AAAAABD535556B18AA3583561AC648
:10059000AC0D4D7806CFC003C800004800004800ED
:1005A000004800FFFFFF1813D55555AAAAABD55533
:1005B00056AAAAAAD55556EAAAAA5553566AB2AA65
:1005C0005553566AB2AC3577580FA6B00025E000F7
:1005D0002400002400002200006200004100FFFF10
:1005E000FF100A3FC020203FE010403FF821043FA9
:1005F000FC12481248FFFF0813387C44444438106A
:100600001010101010101038383838FF100A03FC82
:10061000040407FC02081FFC20043FFC1248124897
:10062000FFFF18130C00001200003F000040800084
:10063000FFC0004080004E80004E80FE4EC1AA4E9A
:10064000BEAA7FAAFE4AEBFE4EBE824A80824E8040
:10065000824A80824E80824A8082FFFFFF1009001A
:1006600004000E01B001C003802D80718003C0FF23
:10067000FF180D00800001400001400001F0000360
:10068000F800029C00070E000507000E03800A0117
:10069000C01C00FC140078FFFFFF102C00000000BD
:1006A0000000000000000000000000003AB813B095
:1006B00012B8000039983154395800000000000089
:1006C000000000000000000000000000000000002A
:1006D000000000000000000000000000000000001A
:1006E000000000000000000000000000000000000A
:1006F0000000FFFF0803A0A0F00803404060080AC4
:10070000387E7C7C38103838383808033EF860086A
:10071000068080C0C0E0605830FFFFFFFFFFFFFF92
:10072000FFFFFFFFFC3FFFFFFFFFFFFFFFFFFFF8A3
:100730001FFFFFFFFFFFFFFFFFFFF027FFFFFFFF90
:10074000FFFFFFFFFFF043FFFFFFFFFFFFFFFFFF84
:10075000F71FFF3FFFFFFFFFC0FEFFF01FFFFFFF80
:10076000FFFFFF81FCEFF01FFFCFFFFFFFFF83CDF7
:10077000FFF83FFFFFFDFFFFFF85FF8FF87FFFFFC3
:10078000CBFFFFFF87EFFFFCFFFF000F3FFFFF22C4
:10079000FDFFF40C00700DF3FFFF80FBFFE380030F
:1007A00003FEFC7FFF81FEFFC3C0055FFFE000008A
:1007B00002FFBFC7A3FE3FFFE0000001FFFFC387AA
:1007C000FC7FFFE8000000FFFFC38FFC7FFFF80005
:1007D0000000FFFFC3CFFFFFFFFE3F0000FFFFC38E
:1007E000CFFFFFFFFFC03000FFFFC3CFFFFFFFFFC2
:1007F000BC0000FFFF83CFFFFFFFFC000000FFFFF6
:1008000083C7FFFFFFF8000001FFFF83C7FFFFFF63
:10081000FA000001FFFF93C7FFFFFFFE118000FFFA
:10082000FF83C7FFFFFFFFC72001FFFFDBC7FFFFFD
:10083000FFFFFFF000FFFF87E7FFFFFFFFFFE00084
:10084000FFFFC01FFFFFFFEFFFC007FFFFF81FFF05
:10085000FFFFFFFF0007FFFFE01FFFFFFFFFFF009D
:1008600007FFFFE01FFFFFFFFFFF0007FFFFF41F71
:10087000FFFFFFFFFF0007FFFFE01FFFFFFFFFFF7E
:100880000003FFFFFFFFFFFFFFFFFFFFFFFFFF80F2
:100890000000000000000000001F800000000000B9
:1008A000000000001F873327739F6D8E7DCCC91F0A
:1008B0008849A8295524855492691F884968294484
:1008C00024851092591F88496931C424A710925871
:1008D0001F8733276B4E19ED39CCC91F80000000EC
:1008E0000000000000001F80000000000000000069
:1008F000001FFFFFFFFFFFFFFFFFFFFFFFFFFFFFE7
:10090000FFFFFFFFFFFFFFFFFFFFFFFFFFFFFFFFF7
:10091000FFFFFFFFFFFFFFFFFFFFFFFFFFFFFFFFE7
:10092000FFFFFFFFFFFFFFFFFF5830FFFFFFFFFF4D
:10093000FFFFFFFFFFFFFFFFFFFFFFFFFFFFFFFFC7
:10094000FFFFFFFFFFFFFFFFFFFFFFFFFFFFFFC7EF
:10095000FFFFFFFFFFFFFFFFFFFF83FFFFFFFFFF23
:10096000FFFFFFFFFF9BFFFFFFFFFFFFFFFFFFFFFB
:10097000CDFFFFFFFFFFFFFFFFFFFFE3FFFFFFFFD5
:10098000FFFFFFFFFFFFD7FFFFFFFFFFFFFFFFFF9F
:10099000FFFBFFFFFFFFFFFFFFFFFFFFFBFFFFFF6F
:1009A000FFFFFFFFFFFFFFFBFFFFFFFFFFFFFFFF5B
:1009B000FFFFF7FFFFFFFFFFFFFFFFFFFFFD7FFFD1
:1009C000FFFFFFFFFFFFFFFFFD7FFFFFFFFFFFFFB9
:1009D000FFFFFFA92FFFFE0000003FFFFFFFF3C74F
:1009E000FFFE7731783FFFFFFEFD87FFFE829B20F1
:1009F0003FFFFFFD6F97FFFE8295303FFFFFFD2712
:100A000013FFFE9391203FFFFFF9211BFFFE76B1FC
:100A1000783FFFFFFB3113FFFE0000003FFFFFF9AF
:100A20003913FFFE0000003FFFFFF9A535FFFE0070
:100A300000003FFFFFF1A139FFFE0000003FFFFF74
:100A4000E3A37AFFFE0322F73FFFFFF32119FFFE26
:100A500004A242BFFFFFEF419EFFFE049462BFFF6E
:100A6000FFAE488E7FFE0494433FFFFF2E50CF3FE2
:100A7000FE0308F6BFFFFEFEE04FBFFE0000003F92
:100A8000FFFCFCE4679FFFFFFFFFFFFFFD7DDEE74C
:100A90005FFFFFFFFFFFFFFBFDFF76DFFFFFFFFFB5
:100AA000FFFFFBFF7FFFDFFFFFFFFFFFFFFDFE3FBD
:100AB0009FBFFFFFFFFFFFFFFFFE3F0FFFFFFFFF97
:100AC000FFFFFFFFFC3F8FFFFFFFFFFFFFFFFFFC6C
:100AD0003F8FFFFFFFFFFFFFFFFFFC7FC7FFFFFF11
:100AE000FFFFFFFFFFF27FEBFFFFFFFFFFFFFFFFB7
:100AF000C0FFFDFFFFFFFFFFFFFFFFCCFFF6FFFF83
:100B0000FFFFFFFFFFFFBFFFFFFFFFFFFFFFFFFF35
:100B1000FFFFFFFDFFFFFFFFFFFFFFFFFFFFFFFFE7
:100B2000FFFFFFFFFFFFFFFFFFFFFFFFFFFFFFFFD5
:100B3000FFFFFFFFFFFFFFFFFFFFFF5830FFFFFF3B
:100B4000FFFFFFFFFFFFFFFFFFFFFFFFFFFFFFFFB5
:100B5000FFFFFFFFFFFFFFFFFFFFFFFFFFFFFFFFA5
:100B6000FFFFFFFFFFFFFFFFFFFFFFFFFFFFFFFF95
:100B7000FFFFFFFFFFFFFFFC000003FFFFFFFFFF82
:100B8000FFFFFC000003FFFFFFFFFFFFFFFCC06053
:100B900023FFFFFFFFFFFFFFFC402063FFFFFFFF7E
:100BA000FFFFFFFC452023FFFFFFFFFFFFFFFC557A
:100BB0002023FFFFFFFFFFFFFFFCF22873FFFFFF73
:100BC000FFFFFFFFFC000003FFFFFFFFFFFFFFFC35
:100BD000000003FFFFFFFFFFFFFFFFFFFFFFFFFF1F
:100BE000FFFFFFFFFFFFFFFFFFFFFFFFFFFFFFFF15
:100BF000FFFFFFFFFFFFFFFFFFFFFFFFFFFFFFFF05
:100C0000FFFFFFA800000527F3F92200045FA800FA
:100C100000052000012200045FBC00000F27F3F94B
:100C20001C00039FA4FE1FC92412090800011FA471
:100C30008210492412090800011FB88210472412AB
:100C400009083F811FA88210452412090840411F4E
:100C5000A88210452FFFFD0883A11FBC82104F28DA
:100C60000C050884611FA5FF104927F3F908FFE16F
:100C70001FA50111492000010900111FB8FE1147ED
:100C8000200601096AD11FA80010452003811D75A7
:100C9000D39FA8001045200F811D00139FBC00109A
:100CA0004F21FF011CFFE39FA400104921FFC11C3D
:100CB000C0639FFFFFFFFFFC9DAFFFFFFFFF8000B2
:100CC000000001FD200000001F800000000060C047
:100CD0000000001F800000000000000000001F80D6
:100CE0000000000000000000001FFFFFFFFFFFFFEB
:100CF000FFFFFFFFFFFFFFFFFFFFFFFFFFFFFFFF04
:100D0000FFFFFFFFFFFFFFFFFFFFFFFFFFFFFFFFF3
:100D1000FFFFFFFFFFFFFFFFFFFFFFFFFFFFFFFFE3
:100D2000FFFFFFFFFFFFFFFFFFFFFFFFFFFFFFFFD3
:100D3000FFFFFFFFFFFFFFFFFFFFFFFFFFFFFFFFC3
:100D4000FFFFFFFFFFFFFFFFFFFFFFFFFF5830FF29
:100D5000FFFFFFFFFFFFFFFFFFFFFFFFFFFFFFFFA3
:100D6000FFFFFFFFFFFFFFFFFFFFFFFFFFFFFFFF93
:100D7000FFFFFFFFFFFFFFFFFFFFFFFFFFFFFFFF83
:100D8000FFFFFFFFFFFFFFFFFFFC000003FFFFFF70
:100D9000FFFFFFFFFC000003FFFFFFFFFFFFFFFC63
:100DA000C06063FFFFFFFFFFFFFFFC402013FFFF5A
:100DB000FFFFFFFFFFFC452023FFFFFFFFFFFFFFBB
:100DC000FC552043FFFFFFFFFFFFFFFCF22873FFEE
:100DD000FFFFFFFFFFFFFC000003FFFFFFFFFFFF20
:100DE000FFFC000003FFFFFFFFFFFFFFFFFFFFFF10
:100DF000FFFFFFFFFFFFFFFFFFFFFFFFFFFFFFFF03
:100E0000FFFFFFFFFFFFFFFFFFFFFFFFFFFFFFFFF2
:100E1000FFFFFFFFFFD55521000000000003555FD5
:100E2000AAAB40800000000002AABFD555FFC00059
:100E300000000003555FAAAB40800000000003AA39
:100E4000BFD5554E80000400000154DFAAAB4E8090
:100E5000FE0A000001ACBFD3554EC1AA0A00000132
:100E600054DFB18A4EBEAA0F800001ACBFD8367FD6
:100E7000AAFE1FC00000DDDFAC6C4AEBFE14E000F0
:100E80000039BFD4D84EBE82387000FE097FECF026
:100E90004A8082283801FE091FBC804E8082701C67
:100EA0000084091F84804A8082500E03FE089F84BC
:100EB000804E8082E007E7FE189F84804A8082A0EF
:100EC00003C294105FFFFFFFFFFFFFFFFFFFFFFF65
:100ED000800000000000000000001F8000000000F3
:100EE00000000000001F8000000000000000000063
:100EF0001F800000000000000000001FFFFFFFFF38
:100F0000FFFFFFFFFFFFFFFFFFFFFFFFFFFFFFFFF1
:100F1000FFFFFFFFFFFFFFFFFFFFFFFFFFFFFFFFE1
:100F2000FFFFFFFFFFFFFFFFFFFFFFFFFFFFFFFFD1
:100F3000FFFFFFFFFFFFFFFFFFFFFFFFFFFFFFFFC1
:100F4000FFFFFFFFFFFFFFFFFFFFFFFFFFFFFFFFB1
:100F5000FFFFFFFFFFFFFFFFFFFFFFFFFFFFFF5848
:100F600030FFFFFFFFFFFFFFFFFFFFFFFFFFFFFF60
:100F7000FFFFFFFFFFFFFFFFFFFFFFFFFFFFFFFF81
:100F8000FFFFFFFFFFFFFFFFFFFFFFFFFFFFFFFF71
:100F9000FFFFFFFFFFFFFFFFFFFFFFFE000003FF5C
:100FA000FFFFFFFFFFFFFE000003FFFFFFFFFFFF4C
:100FB000FFFEC06063FFFFFFFFFFFFFFFE40201347
:100FC000FFFFFFFFFFFFFFFE452023FFFFFFFFFFA7
:100FD000FFFFFE552013FFFFFFFFFFFFFFFEF2287C
:100FE00063FFFFFFFFFFFFFFFE000003FFFFFFFFA8
:100FF000FFFFFFFE000003FFFFFFFFFFFFFFFFFFFC
:10100000FFFFFFFFFFFFFFFFFFFFFFFFFFFFFFFFF0
:10101000FFFFFFFFFFFFFFFFFFFFFFFFFFFFFFFFE0
:10102000FFFFFFFFFFFFFF9088408007410A8BE32F
:10103000F29FA08420801AC20C51FFF45FC082107E
:101040008075640820BE083F80810F80AAB80C51CB
:1010500045143F808084807FF00A8A28A3FF81E0C6
:10106000C280084009041047DFC213A1007FFC3E84
:101070008A28BFBFFFFF10808002415145FC1FBC82
:101080000C0840BFFA5D2083FFFF84080420A00AFB
:1010900055515F9C1F84080210A00A558A7E2A3F82
:1010A00087F80108A00A5507F9495F840803FEA0E4
:1010B0000A558F88889F84080202BFFA5D7F4949DC
:1010C0005F83F00202800241FA2A2A3F8000020276
:1010D000800241CC1C1C1FFFFFFFFFFFFFFFFFFF33
:1010E000FFFF800000000000000000001F800000E3
:1010F000000000000000001F800000000000000051
:1011000000001F800000000000000000001FFFFF23
:10111000FFFFFFFFFFFFFFFFFFFFFFFFFFFFFFFFDF
:10112000FFFFFFFFFFFFFFFFFFFFFFFFFFFFFFFFCF
:10113000FFFFFFFFFFFFFFFFFFFFFFFFFFFFFFFFBF
:10114000FFFFFFFFFFFFFFFFFFFFFFFFFFFFFFFFAF
:10115000FFFFFFFFFFFFFFFFFFFFFFFFFFFFFFFF9F
:10116000FFFFFFFFFFFFFFFFFFFFFFFFFFFFFFFF8F
:10117000FF401D00000000000F80380FF00000004D
:1011800010404410080000001040442004000000FB
:101190000840442004000000084038238400000078
:1011A0000840003C8400000008400001080F03C70D
:1011B000884070023010843848708804402048000D
:1011C000281888088640280029CC8811094E28C68E
:1011D0002A250821F15128BA2A25102001512882F8
:1011E0002A251020014E488229C51010012088822E
:1011F0002809100FFF1F0783C7F0E0000000000060
:10120000000000001F000000000000007F3E000002
:1012100000000000F07EF9F87C7C0000F870FBF81C
:10122000FCFE0000F87DC398CECE0000C03DC31880
:10123000CEFE0000E00DC3BCFEE00000FEFCFBFEA5
:10124000FEFF00007EF8F9F6F87F000000000000C5
:10125000C000000000000000C0000003053F213F67
:101260001208120A100A0E1C0E0C1E0C141A141668
:101270001F161E131E1E1B1E1E1F1E3F213F3A2F30
:101280003A173D173F213F181F02040A041F0E049E
:10129000040E1F0A1F0A0E0E1F04110E2E252E2FDC
:1012A0002A2E262929021F02081F08150E04040EE3
:1012B000150E15151B151B040604040C0400000074
:1012C0000017000300031F0A1F16371A1904130A18
:1012D000153A000300000E11110E000A040A040E54
:1012E000040030000404040010001804031F111F40
:1012F000121F101D151711151F07041F17151D1F8D
:10130000151D01011F1F151F17151F000A000032B0
:1013100000040A110A0A0A110A040115020E111723
:101320001E051E1F150A0E110A1F110E1F15111F73
:1013300005010E111D1F041F111F1108100F1F049E
:101340001B1F10101F061F1E040F0E110E1F090673
:101350000E112E1F051A121509011F011F101F0F54
:10136000180F1F0C1F1B041B031C03191513001F50
:1013700011030418111F00020102202020000102A5
:101380000C121E1F120C0C12120C121F0C1A140439
:101390001E05242A1E1F021C141D1020201D1F08BC
:1013A00014111F101E041E1E021C0C120C3E0A04F7
:1013B0000C123E1E040214160A020F120E101E0E0C
:1013C000100E1E081E120C1226281E322A26041E7B
:1013D00021001F00211E040102013F213F0A4E6F20
:1013E0002053442063617264206F720A6E6F204C38
:1013F0004F414445522E4845580A0A153A457869E6
:1014000074001D20466C617368696E670A20206C49
:101410006F616465722E2E2E0A0A444F4E275420A7
:101420005455524E204F464621006D560A0A504CE4
:10143000454153450A5455524E204F4646004C4FA5
:101440005720424154544552590A0017736176653A
:1014500000166261636B001574797065000A0A0AF0
:10146000153A6F6B617920163A6564697400596F9B
:101470007520656E74657265640A00540A03E18123
:10148000867F3E186D830F0F0E0183866033186DC3
:10149000C3198F1803C38E6033186DE330CF180360
:1014A000C39E603630CDE360CF3006C79E7E3E30AF
:1014B000CDB360CF300CC6F6603330D9B660CF33D1
:1014C000CFCCF66061B0DB1E60CF30D86CE6C06177
:1014D000B0DB1E618F19986CC6C063B19B0E330FD1
:1014E0000FB078C6FF7E1F1B061E0F175344001651
:1014F000137800161314001510200015201000009A
:101500000005008930080238024978681400004557
:10151000006801000005006801380100000500387E
:101520000168010000F6E8DBCFC3B8AEA49B928A45
:10153000827B746E68625C57524E4945413E3A3731
:1015400034312E2C29272523211F1D1C1A1917166B
:101550001514131211100F0E0D0C0B0A09080706B3
:10156000641568150101F7030101FF030000000085
:10157000240027002A0000000000250028002B007E
:1015800000000000230026002900040404040404D1
:101590000404020202020202030303030303010222
:1015A00004081020408001020408102001020408F1
:1015B00010200000000700020100000304060000E4
:1015C000000000000000D20B11241FBECFEFD8E0B6
:1015D000DEBFCDBF11E0A0E0B1E0E2ECFAE502C071
:1015E00005900D92A239B107D9F717E0A2E9B1E051
:1015F00001C01D92A535B107E1F715E1C8ECD5E1B1
:1016000004C02297FE010E94242DC63CD107C9F7D1
:101610000E9456290C945F2D0C940000A0E0B0E0CD
:10162000E4E1FBE00C94302DEC01A880B980CA8085
:10163000DB80A114B104C104D10441F484E2A82EDA
:1016400089EDB82E8BE5C82E87E0D82EC601B501EE
:101650002DE133EF41E050E00E94072D27EA31E40D
:1016600040E050E00E949F2C7B018C01C601B50137
:101670002DE133EF41E050E00E94072DCA01B9018E
:101680002CEE34EF4FEF5FEF0E949F2C6E0D7F1D0D
:10169000801F911F97FF04C06150704080409048A8
:1016A000688379838A839B839B01AC015F77B9014F
:1016B000CA01CDB7DEB7EAE00C944C2D0E940E0BA8
:1016C00008958BE191E00E940E0B089560931B0139
:1016D00070931C0180931D0190931E010895FC01DD
:1016E000742F643508F05DC047FD5BC040330CF0DB
:1016F00058C0878D823019F5842F859585958595FD
:10170000992787FD9095462F552747FD509524E54D
:1017100030E0829FF001839FF00D929FF00D112425
:10172000E40FF51FE25BFA4F808190E0272F2770CE
:1017300002C0959587952A95E2F780958170972F3D
:10174000959595959595462F552747FD5095272FAB
:1017500027708823A1F4E4E59E02F0011124E40F30
:10176000F51FE25BFA4F81E090E002C0880F991FFD
:101770002A95E2F780952081282320830895E4E5C7
:101780009E02F0011124E40FF51FE25BFA4F81E0A5
:1017900090E002C0880F991F2A95E2F72081282B3C
:1017A000208308951092E3011092E2018DE891E008
:1017B0009093E1018093E0010895EF92FF920F93DF
:1017C0001F93CF93DF931092AA016091180270913A
:1017D00019026F5F7F4F709319026093180221E026
:1017E00030E030931B0220931A0210921D021092D7
:1017F0001C0210921F0210921E02109221021092DF
:1018000020021092230210922202109225021092BE
:10181000240240E250E050932702409326021092A7
:1018200029021092280230937B0220937A021092B0
:101830007D0210927C0210927F0210927E025093E1
:10184000810240938002A2E0B0E0B0938302A093B3
:1018500082021092850210928402E6E0F0E0F0939A
:101860008702E0938602109288021092890281E03A
:1018700080938A0210928B0210928D0210928C0239
:1018800010928F0210928E02309391022093900258
:101890006130710509F065C084E190E09093290200
:1018A0008093280225E030E030938D0220938C0253
:1018B00030938F0220938E0270932B0260932A0242
:1018C000B0932D02A0932C0243E050E050932F02DE
:1018D00040932E0284E090E0909331028093300296
:1018E0003093330220933202F0933502E0933402B6
:1018F0005093370240933602909339028093380216
:1019000030933B0220933A02B0933D02A0933C02F5
:10191000F0933F02E0933E027093410260934002D5
:1019200090934302809342025093450240934402B5
:101930003093470220934602F0934902E093480215
:10194000B0934B02A0934A0270934D0260934C02F5
:1019500050934F0240934E02F0935102E093500295
:101960006AC16230710509F0B8C084E290E09093DA
:10197000290280932802A8E0B0E0B0938D02A093E2
:101980008C02B0938F02A0938E0281E190E090933D
:101990002B0280932A0222E1E22EF12CF0922D02FA
:1019A000E0922C0203E110E010932F0200932E022C
:1019B00045E150E05093310240933002E4E1F0E021
:1019C000F0933302E0933202B0933502A0933402D5
:1019D00066E170E0709337026093360250933902EB
:1019E0004093380210933B0200933A02F0923D027A
:1019F000E0923C0250933F0240933E02F09341023A
:101A0000E093400288E190E0909343028093420289
:101A100087E190E0909345028093440289E190E051
:101A20009093470280934602709349026093480264
:101A300050934B0240934A0289E090E090934D020C
:101A400080934C02F0934F02E0934E0227E030E087
:101A5000309351022093500290935302809352028C
:101A600030935502209354027093570260935602AC
:101A70009093590280935802B0935B02A0935A024C
:101A800090935D0280935C02F0935F02E0935E02AC
:101A9000309361022093600250936302409362028C
:101AA0001093650200936402F0926702E09266026E
:101AB0005093690240936802F0936B02E0936A02CC
:101AC00030936D0220936C0230936F0220936E026C
:101AD0003093710220937002AEC06330710509F03B
:101AE000AAC050932902409328028AE090E0909384
:101AF0008D0280938C0290938F0280938E0229E056
:101B000030E030932B0220932A0230932D02209351
:101B10002C0230932F0220932E0281E190E09093CB
:101B2000310280933002309333022093320230939B
:101B30003502209334023093370220933602E5E1D8
:101B4000F0E0F0933902E0933802A7E0B0E0B09300
:101B50003B02A0933A028BE090E090933D02809389
:101B60003C02B0933F02A0933E02F0934102E09307
:101B7000400262E170E0709343026093420243E1ED
:101B800050E0509345024093440280E190E09093EE
:101B90004702809346025093490240934802709353
:101BA0004B0260934A02F0934D02E0934C0284E1B1
:101BB00090E090934F0280934E02B0935102A09315
:101BC000500286E190E09093530280935202F0938A
:101BD0005502E09354028CE090E09093570280937A
:101BE00056028DE090E090935902809358028EE067
:101BF00090E090935B0280935A02F0935D02E09331
:101C00005C0230935F0220935E0230936102209366
:101C100060028FE090E090936302809362023093C1
:101C20006502209364023093670220936602B093AA
:101C30006902A09368026091280270912902AAE2C9
:101C4000B2E040E050E020E230E00EC0ED91FD91C6
:101C5000EE0FFF1FEE0FFF1FEF5DFE4F80819181A2
:101C6000280F391F4F5F5F4F461757077CF330939C
:101C7000270220932602C2E9D2E000E010E081E0D2
:101C8000E82EF12C3FC0F982E882FB82EA8262E012
:101C900070E00E94D22CE0912402F09125020617F8
:101CA000170744F4F297BF01882777FD8095982F96
:101CB000B89608C0E85AFF4FBF01882777FD809586
:101CC000982FF2969F01442737FD4095542F0E948C
:101CD000642B7D836C836FE070E080E090E021E214
:101CE00030E040E050E00E94642B7F836E8382E00E
:101CF00090E0998788871B861A861D861C860F5F51
:101D00001F4F2E9680918C0290918D020817190713
:101D10000CF4B9CFDF91CF911F910F91FF90EF900D
:101D20000895EF92FF920F931F93CF93DF9310923A
:101D300023021092220260912402709125028827CA
:101D40009927861B970B0F968736910540F461956E
:101D500080EE91E047EE2FEC30E00E94161C80915F
:101D600022029091230240969093230280932202B4
:101D70000AE212E0C0E0D0E0CFC0F801A081B1815A
:101D8000FD01EE0FFF1FEE0FFF1FEF5DFE4FE08026
:101D9000F180FD01EE0FFF1FEE0FFF1FED5DFE4F07
:101DA0000190F081E02DCB01821B930B895A9F4F4C
:101DB0008F3A910508F0A3C043E150E04E1B5F0B42
:101DC000FD013197E931F10508F099C0EC5CFF4F56
:101DD000EE0FFF1F0590F491E02D0994621B80EE39
:101DE00091E029E231E089C0621B80EE91E027E7B3
:101DF00031E083C0621B80EE91E025EC31E07DC0D4
:101E0000621B80EE91E026E032E077C0621B80EE3C
:101E100091E024E532E071C0621B80EE91E025E99B
:101E200032E06BC0621B80EE91E023EE32E065C0D1
:101E3000621B80EE91E026EE32E05FC0621B80EE16
:101E400091E024E333E059C0621B80EE91E02CE581
:101E500033E053C0621B80EE91E020ED33E04DC0D3
:101E6000621B80EE91E028EF33E047C0621B80EEFA
:101E700091E020E234E041C0621B80EE91E028E472
:101E800034E03BC0621B80EE91E02FEC34E035C0C3
:101E9000621B80EE91E020E335E02FC0621B80EEF4
:101EA00091E02BE635E029C0621B80EE91E026EA46
:101EB00035E023C0621B80EE91E021EE35E01DC0CD
:101EC000621B80EE91E027EF35E017C0621B80EEC9
:101ED00091E02CE036E011C0621B80EE91E022E23E
:101EE00036E00BC0621B80EE91E02DE536E005C0C8
:101EF000621B80EE91E021E736E00E94161C809183
:101F00002202909123028E0D9F1D909323028093B5
:101F1000220221960E5F1F4F809128029091290284
:101F200020912402309125026091220270912302B7
:101F3000C817D9070CF421CFCB01821B930B0F9646
:101F40008736910540F4621B80EE91E047EE2AE966
:101F500036E00E94161CDF91CF911F910F91FF90E8
:101F6000EF9008952F923F924F925F926F927F92DF
:101F70008F929F92AF92BF92CF92DF92EF920F9388
:101F80001F93DF93CF93CDB7DEB728970FB6F894A2
:101F9000DEBF0FBECDBF80918E0290918F02892B44
:101FA00079F0B2E9CB2EB2E0DB2E27EE33E03C83B2
:101FB0002B83A7EE6A2EA3E07A2E1A82198266C4BA
:101FC00020911A0230911B022F5F3F4F30931B026A
:101FD00020931A028091240290912502909321026D
:101FE0008093200280911802909119020596820F29
:101FF000931F90938D0280938C0290938F02809315
:102000008E0202E912E0CC24DD24F1E08F2E912C27
:10201000E8E7AE2EB12C55C0F80191828082938200
:102020008282C30162E070E00E94D22C80911A0289
:1020300090911B02C616D7068CF48A9D90018B9D49
:10204000300D9A9D300D11242E5B3040B901882748
:1020500077FD8095982F2A5B3F4F10C08A9D900195
:102060008B9D300D9A9D300D112420523040B901C6
:10207000882777FD8095982F2E5C3F4F442737FDAA
:102080004095542F0E94642BF801758364836FE0A0
:1020900070E080E090E021E230E040E050E00E941B
:1020A000642BF8017783668382E090E091878087D4
:1020B00013861286158614860894C11CD11C025FF3
:1020C0001F4F60908C0270908D02C614D7040CF4E0
:1020D000A3CF20911A0230911B0222303105A9F4BE
:1020E000C3010197880F991FFC0163E0EE0FFF1FEA
:1020F0006A95E1F7E81BF90BEE56FD4F318320831B
:1021000081E090E09187808711C423303105D9F0B8
:102110002430310589F5089461087108C301880FDE
:10212000991FFC0143E0EE0FFF1F4A95E1F7E81B02
:10213000F90BEE56FD4F83E090E09183808382E1BE
:1021400090E091878087089461087108C301880F27
:10215000991FFC0123E0EE0FFF1F2A95E1F7E81B12
:10216000F90BEE56FD4F42E050E05183408321E0F1
:1021700030E03187208742C02530310509F0D6C3D1
:1021800042E050E0509393024093920221E030E00D
:1021900030939B0220939A025093A1024093A00295
:1021A0003093A9022093A802A3E0B0E0B093AF025D
:1021B000A093AE028DEB91E09093B3028093B202B4
:1021C00062E170E07093B7026093B6020894610810
:1021D0007108C301880F991FFC0113E0EE0FFF1F68
:1021E0001A95E1F7E81BF90BEE56FD4FB183A0837A
:1021F0008BE592E0958384837187608708946108FA
:102200007108C301880F991FFC0113E0EE0FFF1F37
:102210001A95E1F7E81BF90BEE56FD4F5183408309
:1022200031872087C3010197880F991FFC01A3E024
:10223000EE0FFF1FAA95E1F7E81BF90BEE56FD4FD5
:10224000518340833187208771C3F601208031801C
:10225000428053802481358138872F838680978000
:10226000408551855E834D83A284B38451E0251659
:10227000310409F00CC186E04816510409F457C036
:10228000A114B10409F045C022E030E03387228771
:1022900020917C0230917D024F815885421753076F
:1022A0005CF041505040558344834F5F5F4F5887E7
:1022B0004F83158614860BC08F8198850196F60191
:1022C00095838483019798878F83358624868091B0
:1022D0008002909181024F815885421B530B9A01D5
:1022E0008816990654F0225F3F4F2D313105F8F4DE
:1022F000F60186819781019709C0225F3F4F2D31FA
:102300003105A8F4F601868197810196978386832B
:102310000EC0C5010197F60193878287F5E04F163D
:10232000510429F4892B19F4F60133822282609139
:102330002402709125028F819885861B970B079642
:102340008F35910508F06CC1F5E04F16510489F402
:1023500027E0A216B104A9F135E0A316B10489F172
:1023600043E0A416B10469F151E0A516B10479F473
:1023700028C086E04816510451F49F81961B692FAE
:10238000482D465F80EE91E02AE930E00DC0F6016D
:1023900084859585FF81F61B6F2F892B41F480EE94
:1023A00091E0482D20EA30E00E94161C0AC080EE21
:1023B00091E0482D20EA30E000E0EE24E3940E9412
:1023C000841C2091800230918102C90106968815F3
:1023D00099050CF425C1C4010496821793070CF4E7
:1023E0001FC180918802882389F126E0421651049A
:1023F00069F140917C0250917D022F813885241B28
:10240000350B1216130664F4261537054CF480912B
:102410008902882329F489819A819C838B8301C056
:1024200093013A01EF81F8856E1A7F0A161417049A
:1024300064F4621673064CF480918902882329F0B3
:1024400029813A813C832B8301C0390120917C0290
:1024500030917D028F8198850497281739070CF4F5
:10246000DFC08F8198850696821793070CF4D8C039
:1024700036E04316510409F4D3C080918402909150
:10248000850201969093850280938402C9C042E040
:102490002416310409F0C4C056E04516510409F46D
:1024A0005CC0A114B10409F048C021E030E0F6019D
:1024B0003387228720917C0230917D024F8158859D
:1024C000421753075CF042505040558344834E5F9F
:1024D0005F4F58874F83158614860DC08F8198856E
:1024E0000296F60195838483029798878F8341E053
:1024F00050E0558744878091800290918102EF815E
:10250000F885E21BF30B9F018816990654F0225FB1
:102510003F4F2D31310508F5F601868197810297ED
:1025200009C0225F3F4F2D313105B8F4F601868195
:10253000978102969783868310C0C5010197F601A3
:1025400093878287F5E04F16510439F4892B29F4DB
:1025500021E030E0F6013383228360912402709100
:1025600025028F819885861B970B07968F359105DD
:1025700008F083C135E04316510489F447E0A416FE
:10258000B104A9F155E0A516B10489F183E0A816BC
:10259000B10469F191E0A916B10479F428C0E6E02C
:1025A0004E16510451F4FF81F61B6F2F482D465FE4
:1025B00080EE91E02AE930E00DC0F6018485958532
:1025C000FF81F61B6F2F892B41F480EE91E0482D9F
:1025D0002FEA30E00E94161C0AC080EE91E0482DE0
:1025E0002FEA30E000E0EE24E3940E94841C209166
:1025F000800230918102C9010696881599050CF474
:102600003CC1821693060CF438C18091880288235D
:1026100009F415C126E04216510409F0E3C00FC1C8
:1026200083E02816310409F028C1F60122813381A4
:102630002630310509F472C0A114B10409F05FC05D
:1026400022E030E0338722874D815E814930510599
:10265000D4F084E090E0938782874B3051059CF062
:1026600026E030E0338722874D30510564F048E0A2
:1026700050E0538742878D819E810F9724F02AE096
:1026800030E03387228720917C0230917D02F60171
:10269000848195814F8158854217530734F0029702
:1026A000958384831586148608C00296F601958367
:1026B000848341E050E05587448780918002909167
:1026C0008102EF81F885E21BF30B9F0188169906C2
:1026D00054F0225F3F4F2D31310500F5F601868120
:1026E0009781029709C0225F3F4F2D313105B0F429
:1026F000F601868197810296978386830FC0F60143
:10270000828593850197938782872530310531F43F
:10271000892B21F421E030E033832283609124026D
:10272000709125028F819885861B970B07968F35B0
:10273000910508F0A2C035E04316510489F447E042
:10274000A416B104A9F155E0A516B10489F183E0FE
:10275000A816B10469F191E0A916B10479F428C072
:10276000E6E04E16510451F4FF81F61B6F2F482D01
:10277000465F80EE91E02AE930E00DC0F6018485E5
:102780009585FF81F61B6F2F892B41F480EE91E038
:10279000482D2BEB30E00E94161C0AC080EE91E021
:1027A000482D2BEB30E000E0EE24E3940E94841CE3
:1027B0002091800230918102C401049728173907C3
:1027C0000CF45BC046E050E0840E951E8216930622
:1027D0000CF453C080918802882389F156E0451695
:1027E000510469F140917C0250917D022F8138851E
:1027F000241B350B1216130664F4261537054CF40A
:1028000080918902882329F489819A819C838B8312
:1028100001C093013A01EF81F8856E1A7F0A161400
:10282000170464F4621673064CF4809189028823BD
:1028300029F029813A813C832B8301C03901209101
:102840007C0230917D028F81988502972817390785
:10285000A4F04F8158854C5F5F4F421753076CF0CF
:1028600056E04516510449F080918402909185020A
:102870000196909385028093840289819A810196C2
:102880009A838983EEE0F0E0CE0EDF1E80918C0209
:1028900090918D0229813A81281739070CF4D5CC03
:1028A00080918802882309F441C04B815C8183E0D8
:1028B000473E5807DCF5DA01F3E0AA0FBB1FFA9593
:1028C000E1F7A41BB50BAA0FBB1FAC56BD4F8D91F2
:1028D0009C911197059751F1CA01880F991FFC012E
:1028E00063E0EE0FFF1F6A95E1F7E81BF90BEE5668
:1028F000FD4F80859185019791878087892B71F4A1
:1029000086E090E08D939C9380918E0290918F024F
:10291000019790938F0280938E0208C085E090E02B
:102920008D939C9387E090E09387828728960FB6DB
:10293000F894DEBF0FBECDBFCF91DF911F910F91F5
:10294000EF90DF90CF90BF90AF909F908F907F904F
:102950006F905F904F903F902F900895EF920F935C
:1029600080918B0290918902882309F067C0809141
:102970008A02992371F5882359F060917E026E5F77
:1029800040918002465F80EE91E024EF36E00AC07D
:1029900060917E026E5F40918002465F80EE91E022
:1029A00029EF36E00E94161C80EE91E060917E02D5
:1029B000409180022EEF36E00E94161C60917E024C
:1029C0006B5F409180024A5F80EE91E02AE037E041
:1029D00065C0882359F060917E0263504091800267
:1029E000465F80EE91E024EF36E00AC060917E02FF
:1029F000635040918002465F80EE91E029EF36E01F
:102A000000E0EE24E3940E94841C60917E026150F9
:102A100080EE91E0409180022EEF36E000E0EE245F
:102A2000E3940E94841C60917E0266504091800273
:102A30004A5F80EE91E02AE037E067C080918A0229
:102A4000992379F5882359F060917E026E5F409159
:102A50008002465F80EE91E024EF36E00AC060918C
:102A60007E026E5F40918002465F80EE91E029EF2A
:102A700036E00E94161C80EE91E060917E0240914B
:102A800080022EEF36E00E94161C60917E026A5F83
:102A900080EE91E0409180022FE037E00E94161C0A
:102AA00036C0882359F060917E02635040918002C5
:102AB000465F80EE91E024EF36E00AC060917E022E
:102AC000635040918002465F80EE91E029EF36E04E
:102AD00000E0EE24E3940E94841C60917E02615029
:102AE00080EE91E0409180022EEF36E000E0EE248F
:102AF000E3940E94841C60917E02665040918002A3
:102B0000425080EE91E02FE037E00E94841C0F914C
:102B1000EF900895EF92FF921F93CF93DF937C0184
:102B2000009721F0C0E0D0E016E41BC089E3809359
:102B3000E9018AE28093EA0180EE91E060E071E0D1
:102B40000E94E32A11C080EE91E0612F4AE20E94C8
:102B50006F0B80EE91E0612F4BE20E946F0B21968C
:102B60001E5FCE15DF057CF3DF91CF911F91FF90A3
:102B7000EF9008950F931F931092E9011092EA01CC
:102B800000EE11E0C80168E071E00E94E32A609164
:102B9000180270911902C8014AE050E00E94D02A40
:102BA000C8016CE071E00E94E32A60911A02709102
:102BB0001B02C8014AE050E00E94D02A1F910F91E9
:102BC00008951092AA0182E991E061E771E10E9403
:102BD000702382E090E090931902809318020E9483
:102BE000DD0B089582E991E00E9454218823D1F3FE
:102BF00080EE91E060E040E027E137E00E94161CA3
:102C00008CE991E065E00E943919882359F30E940C
:102C1000E115089582E991E00E9454218823D1F3BF
:102C200080EE91E060E040E029E239E00E94161C6D
:102C30008CE991E065E00E943919882359F30E94DC
:102C4000E115089582E991E00E945421882309F456
:102C50000BC280917A0290917B020197B9F5809125
:102C6000180290911902019741F480EE91E060E022
:102C700040E02BE33BE00E94161C809118029091EB
:102C80001902029741F480EE91E060E040E02DE40B
:102C90003DE00E94161C8091180290911902039742
:102CA00041F480EE91E060E040E02FE53FE00E94DB
:102CB000161C8CE991E064E00E943919882309F41C
:102CC000D3C110927B0210927A0208958CE991E0B0
:102CD00066E00E943919882311F00E94E1152091C5
:102CE0001A0230911B0288E790E0AC01249FC001DA
:102CF000259F900D349F900D1124885790409093FC
:102D00001D0280931C0288589F4F90931F0280934E
:102D10001E0220912602309127022817390724F439
:102D200030931F0220931E02109288028CE991E0DA
:102D300064E00E9439198823B9F08091860290914D
:102D400087021816190684F487EB91E00E949026FA
:102D500081E080938802809186029091870201979A
:102D600090938702809386028CE991E062E041E0D3
:102D70000E9443198823C1F48CE991E060E041E0AE
:102D80000E944319882381F48CE991E061E041E0DD
:102D90000E944319882341F48CE991E063E041E00B
:102DA0000E944319882351F080918A02882319F0E8
:102DB00010928A0203C081E080938A028CE991E03C
:102DC00061E041E00E944319882389F0209180024C
:102DD000309181022031310554F08091820290912E
:102DE0008302281B390B30938102209380028CE9E7
:102DF00091E063E041E00E944319882389F020912B
:102E00008002309181022432310554F48091820293
:102E100090918302820F931F90938102809380028E
:102E20008CE991E062E041E00E944319882309F4B3
:102E300060C01092890260917C0270917D02E091E5
:102E40002002F0912102CF0188968617970794F50A
:102E500020911E0230911F02C901889768177907D7
:102E60004CF54091240250912502CA01885A9F4F87
:102E700082179307FCF42091820230918302620F43
:102E8000731F70937D0260937C02420F531F509317
:102E900025024093240280911C0290911D02E817A4
:102EA000F9070CF075C02E0F3F1F309321022093BD
:102EB00020026EC040918202509183029A01260F37
:102EC000371F80911E0290911F020797281739071C
:102ED0000CF05EC030937D0220937C0280917E02D4
:102EE00090917F02840F951F90937F0280937E02C2
:102EF0004FC08CE991E060E041E00E9443198823D3
:102F000009F446C081E08093890240917C0250918F
:102F10007D026091200270912102CB018896841776
:102F20009507E4F480911E0290911F02889748173C
:102F30005907A4F4209124023091250262177307E7
:102F40006CF48091820290918302281B390B30939C
:102F5000250220932402481B590B16C0209182029F
:102F600030918302C901840F951F8617970784F05B
:102F700080917E0290917F02821B930B90937F023F
:102F800080937E02421B530B50937D0240937C0240
:102F90008CE991E065E00E943919882321F4809141
:102FA0008B02882391F010928B022091860230913F
:102FB0008702263031054CF481E080938B022F5F2D
:102FC0003F4F309387022093860280918402909134
:102FD0008502019711F40E940A1680917C0290915B
:102FE0007D020F96209126023091270282179307C7
:102FF0005CF08091180290911902039719F40E94D5
:10300000F21502C00E94DD0B2091200230912102B6
:1030100080911C0290911D022817390764F48EE1FB
:103020008093E90186E28093EA0180EE91E06EE010
:1030300071E00E94E62A0E94910E209120023091B8
:10304000210280911C0290911D022817390711F46A
:103050000E94B20F0E94BA15809186029091870259
:103060000E948A150E94AE14089582E991E00E94A0
:1030700076230E94E1150895882319F48CB58062A7
:1030800002C08CB58F7D8CBD08959CB5937F982B25
:103090009CBD08952CB5382F33702C7F322B3CBD4E
:1030A0002DB590E0959587959595879581702E7FA4
:1030B000822B8DBD08958AE061E00E94AE288AE0EF
:1030C00061E00E946F288CB580618CBD8CB58064F6
:1030D0008CBD8DE061E00E946F288BE061E00E9472
:1030E0006F280895FC0181E08083089585E070E0F9
:1030F0000E940F2808956F927F928F929F92AF92B5
:10310000BF92CF92DF92EF92FF920F931F93CF93D4
:10311000DF93EC0189819A818C0124E0000F111F5B
:103120002A95E1F7081B190B85E10E94ED27BC01E8
:10313000600F711F84E0769567958A95E1F77A8331
:1031400069838881882381F12E813F81621773070B
:1031500010F4B90106C0888599858617970708F489
:10316000BC0100D000D080E090E040E050E0E88476
:10317000F98400E010E0AD80BB24CC24DD246C8019
:10318000772488249924EDB7FEB761827282838206
:1031900094820E94F92A6B830F900F900F900F90EA
:1031A00085E070E00E940F28DF91CF911F910F9171
:1031B000FF90EF90DF90CF90BF90AF909F908F9057
:1031C0007F906F900895FC018CE39FE0938382834E
:1031D00084E0818381E084870895CF93DF93EC01BD
:1031E0008C8590E08F719070892B69F584E10E9445
:1031F000ED27AA2797FDA095BA2FBC01CD010E940B
:10320000B02B26EE3FE34EEC50E40E943C2C0E9493
:10321000822B9B01AC017B836A836115710589F068
:1032200084E08983B901FE0120E0848195816817DB
:10323000790710F429830AC02F5F32962430A9F74A
:1032400002C08FEF89838C858F5F8C87DF91CF9150
:103250000895FC0188E0808389E0818387E0828390
:1032600086E0838384E0848382E0858381E18683B2
:10327000089520E0FC01E60FF11D8781813009F4FB
:1032800021E0822F0895E62FF0E0423040F420E064
:10329000E80FF91F878181508E3F88F40FC0E80F37
:1032A000F91F87818F3F11F420E009C020E090E0F2
:1032B000642F70E00E94BE2C019709F421E0822F58
:1032C00008950F931F93CF93DF93EC0110E00FEF5E
:1032D000888162E00E946F2888810E9402292F81E4
:1032E000892B19F42F5F2F8307C0222349F02F3F2A
:1032F00011F41F8201C00F83888160E00E946F2853
:103300001F5F2196173021F7DF91CF911F910F9109
:103310000895FC01678F60A30895FC01678F40A3A7
:103320000895AF92BF92CF92DF92EF92FF920F93E8
:103330001F93CF93DF93EC01162FF42EE22EAA24D5
:10334000402F552747FD50958F2D992787FD909544
:10335000481B590B57FF03C0509541955F4F2E2DC9
:10336000332727FD3095812F992787FD9095281BBE
:10337000390B37FF03C0309521953F4F2417350790
:1033800044F4AA24A3948F2DF12E182F802F0E2DF4
:10339000E82EE11634F48E2DE12E182F802F0F2DFC
:1033A000F82EDE2CD11A202F332727FD30958F2DB4
:1033B000992787FD9095281B390B37FF03C030955F
:1033C00021953F4FB22EF0161CF0CC24CA9402C0B7
:1033D000CC24C3948D2DD7FC8F5F082F059511C089
:1033E000AA2021F0CE016F2D412F03C0CE01612F05
:1033F0004F2D0E946F0B0B1907FF02C0FC0C0D0D27
:103400001F5FE1166CF7DF91CF911F910F91FF9035
:10341000EF90DF90CF90BF90AF9008950F93042F5F
:10342000322F262F2150230F0E9491190F910895BA
:103430000F93362F042F0150020F232F0E94911952
:103440000F9108959F92AF92BF92CF92DF92EF9229
:10345000FF920F931F93CF93DF936C01B62E942EA0
:10346000A02EC0E0D0E0E62EFF24E7FCF094022F6F
:10347000112707FD10950E0D1F1D06C0C601492D11
:103480002A2D0E94181A21966B2D6C0FCE018E0DDD
:103490009F1D8017910794F3DF91CF911F910F919A
:1034A000FF90EF90DF90CF90BF90AF909F900895E6
:1034B0002F923F925F926F927F928F929F92AF92E4
:1034C000BF92CF92DF92EF92FF920F931F93DF9301
:1034D000CF9300D000D000D0CDB7DEB79E838D83D0
:1034E000C62ED42EEE24E394E21A8EEF289F502CA1
:1034F0001124842E8A94962E9A94A42EA394B62EE8
:10350000B394F22E662423E0722E10E0C80184707A
:1035100090709A838983F801E270F070FC83EB83EA
:1035200098E0292E312C202231220170107054C0D5
:10353000E7FC04C0FA94F2E05F0EE50C6394898125
:103540009A81892B71F04F2D4D0D8D819E816B2DB0
:103550000E946F0B6F2D6C0D8D819E814A2D0E94F4
:103560006F0BEB81FC81EF2B71F04D2D4F198D818D
:103570009E816B2D0E946F0B6F2D6C0D8D819E8136
:10358000482D0E946F0B2114310471F06C2D6F19BE
:103590008D819E814A2D0E946F0B4F2D4D0D8D8187
:1035A0009E81692D0E946F0B0115110571F06C2D24
:1035B0006F198D819E81482D0E946F0B4D2D4F19E3
:1035C0008D819E81692D0E946F0BE70CF2E07F0ECA
:1035D0008A949A94A394B3946F140CF4A9CF26966A
:1035E0000FB6F894DEBF0FBECDBFCF91DF911F9114
:1035F0000F91FF90EF90DF90CF90BF90AF909F9092
:103600008F907F906F905F903F902F9008954F9292
:103610005F926F927F928F929F92AF92BF92CF9262
:10362000DF92EF92FF920F931F93CF93DF93EC0102
:10363000A62E742E9E2DFF24F394F21A8EEF289F4F
:10364000802C1124B42EBA9453E0C52ECE0CE22E59
:10365000DD2443E0942E10E031E0432E512C402233
:103660005122692E63940270107034C0F7FC04C0BC
:10367000EA9482E0880EF80CD3944114510489F046
:103680006D2D6A0D472D4E192E2D220F260DCE01C0
:103690000E94181A6E2D6A0DCE014B2D2C2D0E9402
:1036A000181A0115110589F06A2D6D19472D4E194B
:1036B0002E2D220F260DCE010E94181A6A2D6E198A
:1036C000CE014B2D2C2D0E94181AF90C82E0980E79
:1036D000BA94C80EDE1454F2DF91CF911F910F916E
:1036E000FF90EF90DF90CF90BF90AF909F908F9022
:1036F0007F906F905F904F9008957F928F929F92EE
:10370000AF92BF92CF92DF92EF92FF920F931F93EF
:103710006C01962EA42EF22E7E2C760E1EEFE19ECC
:10372000102D1124812E820E672D282D0E940E1A35
:10373000B02EBA0CBA94C601672D4B2D282D0E94CD
:103740000E1AAE0C100FC601692D4A2D212F0E94B2
:10375000181AF90CFA94C6016F2D4A2D212F0E94D8
:10376000181AC601672D4A2D2E2D01E00E94581A05
:10377000FE18C6016F2D4A2D2E2D02E00E94581A08
:10378000BE18C6016F2D4B2D2E2D04E00E94581A35
:10379000C601672D4B2D2E2D08E00E94581A1F914F
:1037A0000F91FF90EF90DF90CF90BF90AF909F90E0
:1037B0008F907F9008958F929F92AF92BF92CF92F9
:1037C000DF92EF92FF920F931F936C01162FA42E9E
:1037D000922EF02EBE2C8E2C860E2EEFE29EE02C2A
:1037E00011242E2D290D682D0E94221AAB0CFA945B
:1037F000FE0C1150190D1B19C601612F4A2D2B2DDE
:1038000001E0EF2C0E94071BC601682D4A2D2B2DCD
:1038100002E00E94071B1F910F91FF90EF90DF9035
:10382000CF90BF90AF909F908F9008953F924F920E
:103830005F926F927F928F929F92AF92BF92CF9240
:10384000DF92EF92FF920F931F93CF93DF934C0180
:10385000362E442EF901A490319654906F010894AD
:10386000C11CD11C8A2D992787FD9095079668E089
:1038700070E00E94D22CE62EFF24E7FCF09400E0DA
:10388000C0E0D0E060E8662E712C26C0E12FE595FF
:10389000E595E595FF27E7FDF095EC0FFD1FEC0D95
:1038A000FD1DE4912E2F30E0812F8770A30102C00F
:1038B000559547958A95E2F724233523232B31F03C
:1038C000612F630DC4014B2D0E946F0B1F5F1A15F2
:1038D000ECF20F5FCE0DDF1D051524F410E0B02EC5
:1038E000B40CF5CFDF91CF911F910F91FF90EF9026
:1038F000DF90CF90BF90AF909F908F907F906F9010
:103900005F904F903F9008952F923F924F925F9219
:103910006F927F928F929F92AF92BF92CF92DF92DF
:10392000EF92FF920F931F93DF93CF9300D000D0BD
:103930000F92CDB7DEB73C01862E4A83F901BE2C2B
:10394000002329F4EE2019F40E94161C7AC0A490DA
:10395000319694901F010894211C311C0370098337
:103960008A2D992787FD9095079668E070E00E9460
:10397000D22C462E552447FC5094C92CCA94FF24BF
:103980001D821C824A2D41504B8356C0E02FE59585
:10399000E595E595FF27E7FDF0958C819D81E80F82
:1039A000F91FE20DF31DE4912E2F30E0802F877078
:1039B000A0E8B0E002C0B595A7958A95E2F72A2362
:1039C0003B23232B61F1B981B13051F0B13028F0A4
:1039D000B23049F0B33061F409C0102FEF2C08C0A9
:1039E000ED2C1F2D05C01D2DEC2C02C01C2DE02E32
:1039F000BB2069F0E3E0BE228B2DB0FE03C0FA2DA0
:103A0000F11B1F2F81FF03C0492D4E19E42E180D05
:103A10005A81E50EC301612F4E2D0E946F0B0F5F7F
:103A2000DA940A150CF4B2CFF3948C819D81840D45
:103A3000951D9D838C83CA94F9141CF4DB8000E0EF
:103A4000F0CF0F900F900F900F900F90CF91DF91CC
:103A50001F910F91FF90EF90DF90CF90BF90AF90AC
:103A60009F908F907F906F905F904F903F902F909E
:103A700008953F924F925F926F927F928F929F92A2
:103A8000AF92BF92CF92DF92EF92FF920F931F936C
:103A9000CF93DF93EC01862EA42E422F102F3F8C64
:103AA00023E526170CF4ABC03FE23A150CF4A7C08F
:103AB000C02EDD248C8190E001979C01C29EC00144
:103AC000C39E900DD29E900D1124262F332727FDE3
:103AD0003095820F931F181619060CF090C08D8137
:103AE00090E09C01C29EC001C39E900DD29E900D9D
:103AF00011242A2D332727FD3095820F931F181686
:103B000019060CF07CC09924442E55246DC09C01EC
:103B1000215030404217530711F460E00EC0429E1E
:103B2000C001439E900D529E900D1124840F951F4D
:103B3000ED8DFE8DE80FF91F64914C9DC0014D9DE8
:103B4000900D5C9D900D1124682C680EBB24792C7F
:103B5000780C3FC0E62EFF2460FF19C0113039F405
:103B60004B2D4A0DCE01672D0E946F0B2EC02C9D50
:103B7000C0012D9D900D3C9D900D11244A2D480FA4
:103B8000CE01662D212F012F0E94221A1EC098A15E
:103B90008F8D9817D1F09F8F113039F44B2D4A0D2E
:103BA000CE01672D0E946F0B0FC02C9DC0012D9D73
:103BB000900D3C9D900D11244A2D480FCE01662D8D
:103BC000212F012F0E94221A3F8EF594E7946E2D2B
:103BD000B3942B2D332727FD30958D8190E0281746
:103BE00039070CF4B7CF9394492D552747FD5095CD
:103BF0008C8190E0481759070CF489CF3F8EDF91F4
:103C0000CF911F910F91FF90EF90DF90CF90BF90D9
:103C1000AF909F908F907F906F905F904F903F906C
:103C200008950F93CF93DF93EC01262F6A3049F468
:103C30008D819885899F802D11249A85980F9A8768
:103C400026C06D3029F169854A8508850E94391D95
:103C50009C816885969F402D11248985480F49874E
:103C60008F818823A9F0552747FD5095699F9001C2
:103C7000112484E590E0821B930B8417950744F48C
:103C80009D81699F902D11248A85890F8A871986C5
:103C900081E090E0DF91CF910F9108951F93CF9332
:103CA000DF93EC01162FF8948E8560E00E94AE2819
:103CB0008F8518161CF460E00E94AE281EBD0DB45E
:103CC00007FEFDCF8EB58F8518161CF461E00E94AB
:103CD000AE287894DF91CF911F910895FF920F93B2
:103CE0001F93CF93DF93EC01FF2400E010E06F2DD2
:103CF0006064CE010E944E1ECE0160E80E944E1EFE
:103D00008E8561E00E94AE288F8518161CF460E055
:103D10000E94AE28F801E25BFA4F90E080818EBDF0
:103D20000DB407FEFDCF8EB59F5F31969435B1F788
:103D30008F8518161CF461E00E94AE28F3940C5A8B
:103D40001F4F86E0F81699F6CE0160E40E944E1EE1
:103D5000DF91CF911F910F91FF900895CF93DF9343
:103D6000DC0188EF91E0EEE4F5E0EF019C011992AF
:103D700021503040E1F719961C9219971A961C921F
:103D8000DF91CF910895EF920F93CF93DF93EC01E2
:103D90004D876C872E87E88A0F8781E088878F8F11
:103DA00018A28F83EBE5F2E184918F5F8C833196CB
:103DB00084918F5F8D833196FE8FED8F0E945B180B
:103DC00081E00E943C1885E00E944A188CE00E9425
:103DD00045188D8561E00E946F288C8561E00E9406
:103DE0006F288E8561E00E946F28888918161CF460
:103DF00061E00E946F288F8518161CF461E00E9414
:103E00006F28888918166CF460E00E94AE286AE07A
:103E100070E080E090E00E945927888961E00E946C
:103E2000AE28EC852E2F332727FD3095F901E65774
:103E3000FA4EE491F0E0EE0FFF1FEA58FA4E85913A
:103E400094919C8B8B8B22563A4EF90184918A8FE8
:103E5000ED852E2F332727FD3095F901E657FA4ED1
:103E6000E491F0E0EE0FFF1FEA58FA4E859194912D
:103E70009A8B898B22563A4EF9018491898FEF856E
:103E80002E2F332727FD3095F901E657FA4EE4919E
:103E9000F0E0EE0FFF1FEA58FA4E859194919E8B49
:103EA0008D8B22563A4EF90184918B8FEE852E2F01
:103EB000332727FD3095F901E657FA4EE491F0E0FB
:103EC000EE0FFF1FEA58FA4E85919491988F8F8BD1
:103ED00022563A4EF90184918C8FCE0161E20E9404
:103EE0004E1ECE0164E10E944E1E8B8587FF02C0EC
:103EF0008FE78B876B856068CE010E944E1ECE01D6
:103F000060E20E944E1ECE016CE00E944E1ECE0169
:103F10000E946E1EDF91CF910F91EF900895CF9385
:103F2000DF93DC01E0E8F7E785919491ED01C75A52
:103F3000DF4FAD0141595F4F8150904C09F04EC0A9
:103F4000E6E9F7E7E491E883E7E9F7E7E491149617
:103F5000EC931497E8E9F7E7E4911596EC9315973D
:103F6000E9E9F7E78591949117969C938E931697BC
:103F7000EBE9F7E78591949119969C938E931897A6
:103F8000EDE9F7E7E4919B96EC939B97EEE9F7E771
:103F9000E4919A96EC939A97EFE9F7E7E491EA01B6
:103FA000E883E0EAF7E7859194915D969C938E9380
:103FB0005C97E2EAF7E7859194915F969C938E93E4
:103FC0005E97E4EAF7E78591949191969C938E939E
:103FD0009097E6EAF7E78591949132C08CE3888365
:103FE00014961C9214972FEF15962C93159780E238
:103FF00093E017969C938E93169784ED93E0199611
:104000009C938E93189781E09B968C939B979A969E
:104010008C939A97FA0120838CEA9DE05D969C939D
:104020008E935C978EED9DE05F969C938E935E974A
:1040300084E79EE091969C938E9390978CE39FE00B
:1040400093969C938E939297DF91CF910895EF92E0
:10405000FF920F931F93CF93DF937C018C01025B40
:104060001F4FC8010E94AE1EC80162E074E10E94A9
:104070009129C8010E946E1E83E00E944A1884E1C3
:1040800091E0EEEFFFE3099584E590E0E80EF91E7C
:10409000F7011082C8016DED73E10E94DC29C801AF
:1040A0000E946E1EE701CA54D040CE010E946119E1
:1040B000CE0164E00E943919882339F462E370E08C
:1040C00080E090E00E945927F0CFDF91CF911F91BF
:1040D0000F91FF90EF9008950F931F93CF93DF936D
:1040E000EC018C01025B1F4FC80161E040E00E94BF
:1040F0008D19FE01E95AFF4FCE5ADF4F85E59881B1
:10410000891B808326961882C855D040698D6130FE
:1041100009F43EC0613028F0888D653008F051C048
:104120004BC0CE0185960E943D24CE0160E00E94E6
:104130007618C8010E94AE1ECA5ADF4F81E08883FC
:10414000C655D040C8016EE374E10E9491296A8D82
:104150007B8DC8014AE050E00E947F2AC8016AE2D4
:1041600074E10E949129C8010E946E1E83B7817F6D
:10417000846083BF83B7816083BF83B7816083BF5F
:10418000889583B78E7F83BF83B78E7F83BF1FC021
:10419000C059DF4F88819981AA81BB818F7090704F
:1041A000A070B0700897A105B10518F4C80167E0C8
:1041B0000CC0C80168E709C0882349F06B5FC801DB
:1041C00004C0882321F0C8016FE20E94B429DF9166
:1041D000CF911F910F910895AF92BF92CF92DF922E
:1041E000EF92FF920F931F93CF93DF93EC01CB5786
:1041F000DF4F8881C558D040882309F44AC08C30ED
:1042000010F010E002C01CE0181BCA5ADF4F81E01A
:104210008883C655D0406EE4C62ED12CCC0EDD1E50
:10422000C60160E00E94891953E5A52EB12CAC0EA1
:10423000BD1EF50100814DE2F42E4F2D401B410FB4
:104240000D5FC60160E024E533E0E32E0E94DB1B36
:10425000C60161E00E948919F5010081F01AF10E92
:104260000D5FC60160E04F2D24E50E947D1BC95AF9
:10427000DF4F84E08993F5018081181B115D18835D
:10428000AB9669917991C6010E94912988818150EC
:104290008883DF91CF911F910F91FF90EF90DF9076
:1042A000CF90BF90AF900895AF92BF92CF92DF9220
:1042B000EF92FF920F931F93CF93DF93EC01EFE701
:1042C000AE2EB12CA80EB91EF501E080F18002815E
:1042D00013810E942527E61AF70A080B190B7EE7BF
:1042E000C72ED12CCC0EDD1EF601808190E0A0E01F
:1042F000B0E08E159F05A007B10708F081C08E01C0
:1043000006581F4FF80180819181A281B3810097E7
:10431000A105B10509F474C00E942527F60120818A
:10432000620F711D811D911DF50160837183828370
:104330009383FE01E059FF4F80819181A281B38177
:104340000196A11DB11D80839183A283B383F801DF
:1043500010821182128213820E943327CA58DF4FC3
:10436000688379838A839B83C657D040CE010E949D
:104370007B18CE010A960E946119CE0148960E94D0
:10438000ED1881E032C08E010B5D1F4FC8010E9405
:104390003924C8010E943725C8010E942D26CE016C
:1043A0000E94EC20CE010E946C208E01025B1F4F08
:1043B000C8010E946E1ECC5ADF4F8881C455D04080
:1043C000882319F4C8010E94AE1E0E943327C658E4
:1043D000DF4F688379838A839B832497288139817F
:1043E000621B730B7A936A9380E0DF91CF911F91E8
:1043F0000F91FF90EF90DF90CF90BF90AF90089516
:10440000C658DF4F88819981AA81BB81CA57D040A5
:104410000097A105B10541F7B6CF2F923F924F9279
:104420005F926F927F928F929F92AF92BF92CF9244
:10443000DF92EF92FF920F931F93DF93CF93CDB74D
:10444000DEB72B970FB6F894DEBF0FBECDBF9B87AC
:104450008A877A8369835C834B838C0101591F4F60
:10446000F8018081882309F422C18A859B858A5AB4
:104470009F4F9B878A8781E0EA85FB858083129224
:104480001292E455F040FB87EA87108E9EE4E92EF5
:10449000F12CEE0EFF1EC70161E00E9489198AE02F
:1044A000282E312C8A859B85280E391EB5E26B2E6D
:1044B000712C680E791EE981FA81F491FD83A7E5DC
:1044C0008A2E912C880E991EF8E5CF2ED12CC80E7D
:1044D000D91EE2E54E2E512C480E591E8D5A9F4F83
:1044E0009F838E8370E7A72EB12C8A859B85A80EAB
:1044F000B91E198708878A859B850E9454218823C5
:10450000D1F39D81992311F410E003C0EE81FF8166
:104510001081C70160E040E02BE734E10E94161CE7
:104520008B819C81892B41F0145FC70160E0412F92
:104530002B813C810E94161CF40110828CE0F60154
:104540008083C70169817A810E949129F2012081CB
:1045500030E0C901880F991F820F931F90958195B4
:104560009F4F8D5AF4018083EE81FF81208130E0DE
:10457000C901880F991F820F931F909581959F4FB6
:10458000835DF6018083F501808184FF04C0C7014B
:104590006BEF74E103C0C70167EF74E10E94DC298F
:1045A000F201208130E0C901880F991F820F931F0B
:1045B000909581959F4F8D5AF4018083F6018081FB
:1045C0008F5F8083EA85FB8582A5882321F0C70160
:1045D00063EF74E103C0C7016FEE74E10E94DC2950
:1045E000F201808190E09C01220F331F280F391FB8
:1045F000309521953F4F2D5AF4012083F60180819B
:104600008F5F8083C7016BEE74E10E94DC29C101DA
:1046100065E00E943919882351F0EA85FB8562A57F
:104620006F5FC3010E949626C3010E949026C101BC
:1046300064E00E943919882399F4E885F98560813E
:10464000262F30E040E050E0F50180819181A28189
:10465000B38182179307A407B50708F16F3FF9F0FC
:104660008A859B8581599F4F9B878A878FEFEA8533
:10467000FB858083EF56F040FB87EA87C30160E04B
:104680000E94DD23C3010E948A2681E0EA85FB8522
:10469000808F0DC08A859B850E9427202CCFC10169
:1046A00066E00E943919882309F425CFF3CF2B96B1
:1046B0000FB6F894DEBF0FBECDBFCF91DF911F9133
:1046C0000F91FF90EF90DF90CF90BF90AF909F90B1
:1046D0008F907F906F905F904F903F902F900895B4
:1046E000AB0160E075E10E940D220895AF92BF9288
:1046F000CF92DF92EF920F93CF93DF936C018EE70F
:1047000090E0C80ED91E82E3F601808381E090E03C
:10471000A0E0B0E0B293A293929382936F0185EFF1
:104720009FEFC80ED91E8FEFF601808381E99FEFBE
:10473000C80ED91EC6010E948F1FC6010E947218A2
:10474000C6016FEF0E9476184AE0A42EB12CAC0C83
:10475000BD1CC5010E942919C5010E946119C6012D
:1047600048960E94E318C601825B9F4F6DE04BE0C4
:1047700020E10FE03EE0E32E0E94C31EE601A59675
:10478000CE010E94A326C50165E00E943919882345
:1047900029F0CE0160E00E94962606C0CE0161E0BD
:1047A00075E140E00E94EF23DF91CF910F91EF90F0
:1047B000DF90CF90BF90AF900895FC01662371F415
:1047C000178A158A14A213A2108E10924A0710920B
:1047D0004907109247071092B400118208950F9371
:1047E0001F93CF93DF93EC018B01442371F460E0BE
:1047F0000E94DD231E870D871B8A1A8A81E0898328
:1048000089E08E8B198E1B8E1D8EDF91CF911F91AB
:104810000F910895CF93DF93EC01662339F58881DA
:10482000882321F18981882309F5898590E0880F03
:10483000991FEF81F885E80FF91F859194912FEF6B
:104840008F3F920711F4188211C09C8790E0880F67
:10485000991FEA85FB85E80FF91F65917491CE01D8
:1048600040E00E94EF2389858F5F8987DF91CF9198
:10487000089560E00E940A24089560E00E94DD230C
:1048800008950F93DC01002309F069C0623009F438
:1048900043C0633030F4662359F0613009F05FC0E3
:1048A0000DC0633009F444C0643009F058C04CC0F6
:1048B0004B3008F04AE056964C9351C0842F90E05C
:1048C000880F991F1F962D913C915097280F391FE3
:1048D000F9018591949190969C938E935F97FC013A
:1048E0004591549114968C911497849F602D1124B6
:1048F00091966C939197252F3327862F90E0281758
:10490000390708F4652F14968C911497689F802DB1
:10491000112492968C9323C014968C911497489FDF
:10492000802D112459968C9359975A962C9317C021
:1049300014968C911497489F802D11245B968C932C
:104940005B975C962C930BC014968C911497489FA0
:10495000802D11245D968C935D975E962C930F911C
:1049600008950F93CF93DF93EC01662309F07BC08A
:104970008981882309F477C08D89882309F073C061
:10498000EA89FB89EE0FFF1F4D855E85E40FF51F59
:10499000259134912115310509F049C0898981306B
:1049A00031F41B8A1A8AFA012591349140C0198288
:1049B0008881882379F0CE0160E00E940A248A89E8
:1049C0009B89880F991FED85FE85E80FF91F2591BA
:1049D00034912DC01F8A1D8A1CA21BA2188E109212
:1049E0004A0710924907109247071092B4003BC043
:1049F00006E0369527950A95E1F76F70422F4F71C3
:104A0000B5E036952795BA95E1F72051CE0100E043
:104A10000E9441248A899B8901969B8B8A8B880FEF
:104A2000991FED85FE85E80FF91F25913491B90195
:104A3000769567957695679520FDDACF862F8F73EB
:104A40008C8B8C81839F802D11248D8B1DA21CA2A9
:104A50001BA281E08F8B80934707188E8A899B89E0
:104A600001969B8B8A8BDF91CF910F91089560E027
:104A70000E94B1240895CF93DF93EC01662309F0DF
:104A8000E9C08F89882309F4E5C08D89882371F4F2
:104A90001F8A1D8A1CA21BA2188E10924A07109210
:104AA0004907109247071092B400D4C081508D8BF3
:104AB0008DA1882309F044C08BA19CA10196880F89
:104AC000991FEF8DF8A1E80FF91F85919491282F78
:104AD00027702EA3AC0173E0569547957A95E1F7C0
:104AE0009A0136952795892F9927869586958FA3C4
:104AF0002F738C81289F202D11242DA3417040936A
:104B00004B078BA19CA101969CA38BA329A130E00C
:104B100082179307A8F08AA1882329F0281B31095E
:104B20003CA32BA30DC01F8A1D8A1CA21BA2188E9A
:104B300010924A0710924907109247071092B4004A
:104B40008DA181508DA3988D9F5F988F2FA18C8907
:104B5000280F8C85280F2A836B8D662369F0892F97
:104B6000992787FD909570E00E94D22C8C8D869FAE
:104B7000802D1124820F8A838A8190E0CB966BE38B
:104B800070E00E94D22C8A832E892B83698D662344
:104B900079F0888D772767FD7095992787FD909527
:104BA0000E94D22C8A8D869F802D1124820F8B83A8
:104BB0006D8D662399F0888D992787FD909570E01B
:104BC0000E94D22CCB0162E070E00E94D22C9E8D1C
:104BD000899F802D11249B81890F8B838B818A3043
:104BE0000CF089E087FD80E08B838C898F3309F49A
:104BF0001B82F894EA81F0E0EB5DFA4EE491E093D9
:104C000048072D8130E08B81992787FD9095A90178
:104C1000489F9001499F300D589F300D112488A561
:104C200090E0A901489F9001499F300D589F300D99
:104C300011248EA1992787FD9095AC01249FC00176
:104C4000259F900D349F900D1124809349078093E8
:104C50004A077894DF91CF91089560E00E943B2548
:104C6000089560914907662381F1809146078F5F1F
:104C70008093460790914807891738F130E080917A
:104C80004707882309F431E030934707109246071D
:104C900080914B078823A9F080911F0123E4829F14
:104CA000C0011124895B80931F0190E070E00E9495
:104CB000BE2C80934A0705C080914A078093B400B8
:104CC00008953323C9F780E0F9CF08951F920F921A
:104CD0000FB60F9211242F933F934F935F936F93CF
:104CE0007F938F939F93AF93BF93EF93FF930E9414
:104CF0003126FF91EF91BF91AF919F918F917F915D
:104D00006F915F914F913F912F910F900FBE0F9038
:104D10001F9018956DE175E140E00E94EF23089522
:104D20006FE075E140E00E94EF230895FC01862FBB
:104D3000668170E06F5F7F4F992787FD90950E9495
:104D4000D22C858308950F93FC0181E0848384E055
:104D500080A780E695E1908B8787CF0161E040E0F6
:104D600020E000E00E94412483E061E070E00E94C6
:104D70000F28E1EBF0E08081887F81608083F894E8
:104D800010928000E1E8F0E010821092850010920D
:104D9000840088E191E0909389008093880080816D
:104DA00088608083808181608083EFE6F0E080818D
:104DB0008260808378940F9108951F920F920FB6AE
:104DC0000F9211242F933F938F939F93AF93BF9391
:104DD0008091500790915107A0915207B0915307CD
:104DE000309154070196A11DB11D232F2D5F2D3742
:104DF00020F02D570196A11DB11D209354078093DB
:104E0000500790935107A0935207B0935307809196
:104E10004C0790914D07A0914E07B0914F07019616
:104E2000A11DB11D80934C0790934D07A0934E0791
:104E3000B0934F07BF91AF919F918F913F912F9169
:104E40000F900FBE0F901F9018958FB7F894209178
:104E500050073091510740915207509153078FBF2F
:104E6000B901CA0108959FB7F89420914C07309179
:104E70004D0740914E0750914F0786B5A89B06C03D
:104E80008F3F21F02F5F3F4F4F4F5F4F9FBF542FFA
:104E9000432F322F2227280F311D411D511D82E043
:104EA000220F331F441F551F8A95D1F7B901CA013C
:104EB00008959B01AC017FB7F89480914C079091C5
:104EC0004D07A0914E07B0914F0766B5A89B05C04E
:104ED0006F3F19F00196A11DB11D7FBFBA2FA92FF9
:104EE000982F8827860F911DA11DB11D62E0880FA4
:104EF000991FAA1FBB1F6A95D1F7BC012DC0FFB730
:104F0000F89480914C0790914D07A0914E07B09175
:104F10004F07E6B5A89B05C0EF3F19F00196A11D0C
:104F2000B11DFFBFBA2FA92F982F88278E0F911D73
:104F3000A11DB11DE2E0880F991FAA1FBB1FEA95B2
:104F4000D1F7861B970B885E9340C8F22150304002
:104F50004040504068517C4F2115310541055105B5
:104F600071F60895789484B5826084BD84B58160BB
:104F700084BD85B5826085BD85B5816085BDEEE661
:104F8000F0E0808181608083E1E8F0E01082808140
:104F900082608083808181608083E0E8F0E08081AE
:104FA00081608083E1EBF0E0808184608083E0EBCE
:104FB000F0E0808181608083EAE7F0E080818460B6
:104FC0008083808182608083808181608083808112
:104FD000806880831092C1000895982F8E3008F069
:104FE0009E509770809120018295880F880F807C59
:104FF000892B80937C0080917A00806480937A0072
:1050000080917A0086FDFCCF209178004091790054
:10501000942F80E030E0282B392BC90108951F938D
:10502000CF93DF93182FEB0161E00E946F28209748
:1050300009F44AC0CF3FD10509F449C0E12FF0E09F
:10504000EE54FA4E84918330C1F0843028F48130DC
:1050500051F08230B1F50CC0863019F1873049F13A
:10506000843079F514C084B5806884BDC7BD33C071
:1050700084B5806284BDC8BD2EC0809180008068E8
:1050800080938000D0938900C093880024C08091D1
:105090008000806280938000D0938B00C0938A0050
:1050A0001AC08091B00080688093B000C093B300B4
:1050B00012C08091B00080628093B000C093B400B1
:1050C0000AC0C038D1051CF4812F60E002C0812FD6
:1050D00061E00E94AE28DF91CF911F910895CF9398
:1050E000DF93482F50E0CA0182569A4EFC0134915A
:1050F00046575A4EFA018491882369F190E0880F4F
:10510000991FFC01E459FA4EA591B491FC01EA58AB
:10511000FA4EC591D491662351F42FB7F8948C912F
:10512000932F909589238C93888189230BC06230BB
:1051300061F42FB7F8948C91932F909589238C93D9
:105140008881832B88832FBF06C09FB7F8948C91EA
:10515000832B8C939FBFDF91CF910895482F50E010
:10516000CA018E549A4EFC012491CA0182569A4E6D
:10517000FC01949146575A4EFA013491332309F4B5
:1051800040C0222351F1233071F0243028F4213023
:10519000A1F0223011F514C02630B1F02730C1F053
:1051A0002430D9F404C0809180008F7703C08091AF
:1051B00080008F7D8093800010C084B58F7702C0FF
:1051C00084B58F7D84BD09C08091B0008F7703C006
:1051D0008091B0008F7D8093B000E32FF0E0EE0F60
:1051E000FF1FEA58FA4EA591B4912FB7F8946623A1
:1051F00021F48C919095892302C08C91892B8C93FA
:105200002FBF0895682F70E0CB018E549A4EFC0199
:105210002491CB0182569A4EFC01449166577A4EF6
:10522000FB019491992319F420E030E03CC0222343
:1052300051F1233071F0243028F42130A1F02230D4
:1052400011F514C02630B1F02730C1F02430D9F464
:1052500004C0809180008F7703C0809180008F7D93
:105260008093800010C084B58F7702C084B58F7D95
:1052700084BD09C08091B0008F7703C08091B000D9
:105280008F7D8093B000892F90E0880F991F805800
:105290009A4EFC01A591B4918C9120E030E08423DA
:1052A00011F021E030E0C90108950895CF93DF9314
:1052B0000E94B2270E9455290E943518C0E0D0E014
:1052C0000E9422162097E1F30E940000F9CFCF92AE
:1052D000DF92EF92FF920F931F93CF93DF937C01A6
:1052E0006B018A01C0E0D0E00FC0D6016D916D0165
:1052F000D701ED91FC910190F081E02DC701099556
:10530000C80FD91F015010400115110571F7CE01CA
:10531000DF91CF911F910F91FF90EF90DF90CF9091
:105320000895EF92FF920F931F93CF93DF937C0129
:105330008B01C0E0D0E0F8010F5F1F4F649166233E
:1053400059F0D701ED91FC910190F081E02DC7015A
:105350000995C80FD91FEFCFCE01DF91CF911F91D3
:105360000F91FF90EF900895DC01ED91FC91019079
:10537000F081E02D09950895EF92FF920F931F930E
:105380008C01DC01ED91FC910190F081E02D6DE04C
:1053900009957C01D801ED91FC910190F081E02DFF
:1053A000C8016AE009959C012E0D3F1DC9011F919E
:1053B0000F91FF90EF900895EF92FF920F931F933C
:1053C0007C010E9491298C01C7010E94BC299C018B
:1053D000200F311FC9011F910F91FF90EF90089589
:1053E000CF93DF93EC016115710519F420E030E0F3
:1053F0000FC0DB010D900020E9F71197A61BB70B3A
:10540000E881F9810280F381E02DAD0109959C01CD
:10541000C901DF91CF9108954F925F927F928F9251
:105420009F92AF92BF92CF92DF92EF92FF920F9333
:105430001F93DF93CF93CDB7DEB7A1970FB6F89444
:10544000DEBF0FBECDBF2C01742ECB01223008F47D
:105450002AE019A231E2C32ED12CCC0EDD1E822E01
:105460009924AA24BB24672D752FA50194010E94BD
:10547000E52C79018A01C801B701A50194010E94B8
:105480009F2C472D461B0894C108D1084A3014F4BC
:10549000405D01C0495CF6014083E114F10401055F
:1054A000110521F07E2C5F2DC801DDCFC201B601B0
:1054B0000E94F029A1960FB6F894DEBF0FBECDBFB3
:1054C000CF91DF911F910F91FF90EF90DF90CF90E0
:1054D000BF90AF909F908F907F905F904F90089576
:1054E000DC012115310541F4ED91FC910190F08131
:1054F000E02D642F099508950E940C2A0895EF92DB
:10550000FF920F931F939A017B0100E010E0B80116
:10551000A7010E94702A1F910F91FF90EF900895AC
:10552000CF92DF92EF92FF920F931F93CF93DF936F
:10553000EC016A017B012115310541F4E881F98113
:105540000190F081E02D642F09951FC02A303105AC
:10555000D1F477FF17C0E881F9810190F081E02D47
:105560006DE209958C0144275527BA014C195D0954
:105570006E097F09CE012AE00E940C2A9801280FAB
:10558000391F04C02AE00E940C2A9C01C901DF9146
:10559000CF911F910F91FF90EF90DF90CF900895E2
:1055A000EF92FF920F931F937B019A010027F7FC64
:1055B0000095102FB801A7010E94902A1F910F910A
:1055C000FF90EF9008950E94F0290895EF92FF92C6
:1055D0000F931F937C010E94F0298C01C7010E9448
:1055E000BC29080F191FC8011F910F91FF90EF9060
:1055F00008952F923F924F925F926F927F928F9277
:105600009F92AF92BF92CF92DF92EF92FF920F9351
:105610001F93DF93CF93CDB7DEB73B014C01190148
:105620002A016D897E898F89988D6A197B098C0979
:105630009D09621A730A840A950AA40193010E94C3
:105640009F2CE218F30804091509A80197010E948C
:10565000072D2A0D3B1D4C1D5D1DB901CA01CF91BF
:10566000DF911F910F91FF90EF90DF90CF90BF904F
:10567000AF909F908F907F906F905F904F903F90F2
:105680002F900895EF92FF920F931F937B018C014F
:10569000611571058105910529F420E030E040E0B5
:1056A00050E00BC00E94610BA80197010E94072DDA
:1056B000AC01CB01DA019C01AD01B901CA011F9116
:1056C0000F91FF90EF900895EF92FF920F931F9329
:1056D0007B018C01621773078407950764F4261B0E
:1056E000370B480B590BCA01B9010E94422BE60E39
:1056F000F71E081F191FB701C8011F910F91FF90D6
:10570000EF90089598D088F09F5790F0B92F99277F
:10571000B751A0F0D1F0660F771F881F991F1AF0BC
:10572000BA95C9F712C0B13081F09FD0B1E00895A9
:105730009CC0672F782F8827B85F39F0B93FCCF32A
:10574000869577956795B395D9F73EF490958095B2
:10575000709561957F4F8F4F9F4F0895E89409C0D2
:1057600097FB3EF490958095709561957F4F8F4F94
:105770009F4F9923A9F0F92F96E9BB279395F695AA
:10578000879577956795B795F111F8CFFAF4BB0F28
:1057900011F460FF1BC06F5F7F4F8F4F9F4F16C08C
:1057A000882311F096E911C0772321F09EE8872F16
:1057B000762F05C0662371F096E8862F70E060E0D2
:1057C0002AF09A95660F771F881FDAF7880F96954B
:1057D000879597F9089597F99F6780E870E060E0F2
:1057E00008959FEF80EC089500240A94161617067A
:1057F00018060906089500240A94121613061406C2
:1058000005060895092E0394000C11F4882352F024
:10581000BB0F40F4BF2B11F460FF04C06F5F7F4FDC
:105820008F4F9F4F089557FD9058440F551F59F0C3
:105830005F3F71F04795880F97FB991F61F09F3F7D
:1058400079F087950895121613061406551FF2CFA6
:105850004695F1DF08C0161617061806991FF1CFF6
:1058600086957105610508940895E894BB2766271D
:105870007727CB0197F908950BD0C4CFB5DF28F077
:10588000BADF18F0952309F0A6CFABCF1124EECFE5
:10589000CADFA0F3959FD1F3950F50E0551F629F8B
:1058A000F001729FBB27F00DB11D639FAA27F00D79
:1058B000B11DAA1F649F6627B00DA11D661F829FA0
:1058C0002227B00DA11D621F739FB00DA11D621F85
:1058D000839FA00D611D221F749F3327A00D611DA2
:1058E000231F849F600D211D822F762F6A2F112484
:1058F0009F5750408AF0E1F088234AF0EE0FFF1FD7
:10590000BB1F661F771F881F91505040A9F79E3F0D
:10591000510570F060CFAACF5F3FECF3983EDCF307
:10592000869577956795B795F795E7959F5FC1F74A
:10593000FE2B880F911D9695879597F90895629F84
:10594000D001739FF001829FE00DF11D649FE00D77
:10595000F11D929FF00D839FF00D749FF00D659FD8
:10596000F00D9927729FB00DE11DF91F639FB00DD7
:10597000E11DF91FBD01CF0111240895AA1BBB1B16
:1059800051E107C0AA1FBB1FA617B70710F0A61B3F
:10599000B70B881F991F5A95A9F780959095BC0160
:1059A000CD01089597FB092E07260AD077FD04D074
:1059B000E5DF06D000201AF4709561957F4F0895B9
:1059C000F6F7909581959F4F0895A1E21A2EAA1B94
:1059D000BB1BFD010DC0AA1FBB1FEE1FFF1FA2179F
:1059E000B307E407F50720F0A21BB30BE40BF50B9C
:1059F000661F771F881F991F1A9469F76095709525
:105A0000809590959B01AC01BD01CF01089597FB56
:105A1000092E05260ED057FD04D0D7DF0AD0001C72
:105A200038F450954095309521953F4F4F4F5F4F3B
:105A30000895F6F790958095709561957F4F8F4FFB
:105A40009F4F0895EE0FFF1F0590F491E02D0994EC
:105A50002F923F924F925F926F927F928F929F927E
:105A6000AF92BF92CF92DF92EF92FF920F931F936C
:105A7000CF93DF93CDB7DEB7CA1BDB0B0FB6F8941D
:105A8000DEBF0FBECDBF09942A88398848885F845D
:105A90006E847D848C849B84AA84B984C884DF80CE
:105AA000EE80FD800C811B81AA81B981CE0FD11DB2
:105AB0000FB6F894DEBF0FBECDBFED010895F89488
:025AC000FFCF16
:105AC20052656C6F616421004C766C002D00476F4B
:105AD200203D3E004C4F4144455200010000000170
